{
  "_format": "hh-sol-artifact-1",
  "contractName": "ElectionNFT",
  "sourceName": "contracts/ElectionNFT.sol",
  "abi": [
    {
      "inputs": [
        {
          "internalType": "address",
          "name": "_electionContractAddress",
          "type": "address"
        }
      ],
      "stateMutability": "nonpayable",
      "type": "constructor"
    },
    {
      "inputs": [
        {
          "internalType": "address",
          "name": "sender",
          "type": "address"
        },
        {
          "internalType": "uint256",
          "name": "tokenId",
          "type": "uint256"
        },
        {
          "internalType": "address",
          "name": "owner",
          "type": "address"
        }
      ],
      "name": "ERC721IncorrectOwner",
      "type": "error"
    },
    {
      "inputs": [
        {
          "internalType": "address",
          "name": "operator",
          "type": "address"
        },
        {
          "internalType": "uint256",
          "name": "tokenId",
          "type": "uint256"
        }
      ],
      "name": "ERC721InsufficientApproval",
      "type": "error"
    },
    {
      "inputs": [
        {
          "internalType": "address",
          "name": "approver",
          "type": "address"
        }
      ],
      "name": "ERC721InvalidApprover",
      "type": "error"
    },
    {
      "inputs": [
        {
          "internalType": "address",
          "name": "operator",
          "type": "address"
        }
      ],
      "name": "ERC721InvalidOperator",
      "type": "error"
    },
    {
      "inputs": [
        {
          "internalType": "address",
          "name": "owner",
          "type": "address"
        }
      ],
      "name": "ERC721InvalidOwner",
      "type": "error"
    },
    {
      "inputs": [
        {
          "internalType": "address",
          "name": "receiver",
          "type": "address"
        }
      ],
      "name": "ERC721InvalidReceiver",
      "type": "error"
    },
    {
      "inputs": [
        {
          "internalType": "address",
          "name": "sender",
          "type": "address"
        }
      ],
      "name": "ERC721InvalidSender",
      "type": "error"
    },
    {
      "inputs": [
        {
          "internalType": "uint256",
          "name": "tokenId",
          "type": "uint256"
        }
      ],
      "name": "ERC721NonexistentToken",
      "type": "error"
    },
    {
      "anonymous": false,
      "inputs": [
        {
          "indexed": true,
          "internalType": "address",
          "name": "owner",
          "type": "address"
        },
        {
          "indexed": true,
          "internalType": "address",
          "name": "approved",
          "type": "address"
        },
        {
          "indexed": true,
          "internalType": "uint256",
          "name": "tokenId",
          "type": "uint256"
        }
      ],
      "name": "Approval",
      "type": "event"
    },
    {
      "anonymous": false,
      "inputs": [
        {
          "indexed": true,
          "internalType": "address",
          "name": "owner",
          "type": "address"
        },
        {
          "indexed": true,
          "internalType": "address",
          "name": "operator",
          "type": "address"
        },
        {
          "indexed": false,
          "internalType": "bool",
          "name": "approved",
          "type": "bool"
        }
      ],
      "name": "ApprovalForAll",
      "type": "event"
    },
    {
      "anonymous": false,
      "inputs": [
        {
          "indexed": true,
          "internalType": "address",
          "name": "to",
          "type": "address"
        },
        {
          "indexed": false,
          "internalType": "uint256",
          "name": "tokenId",
          "type": "uint256"
        },
        {
          "indexed": false,
          "internalType": "string",
          "name": "tokenURI",
          "type": "string"
        }
      ],
      "name": "NFTMinted",
      "type": "event"
    },
    {
      "anonymous": false,
      "inputs": [
        {
          "indexed": true,
          "internalType": "address",
          "name": "from",
          "type": "address"
        },
        {
          "indexed": true,
          "internalType": "address",
          "name": "to",
          "type": "address"
        },
        {
          "indexed": true,
          "internalType": "uint256",
          "name": "tokenId",
          "type": "uint256"
        }
      ],
      "name": "Transfer",
      "type": "event"
    },
    {
      "inputs": [
        {
          "internalType": "address",
          "name": "to",
          "type": "address"
        },
        {
          "internalType": "uint256",
          "name": "tokenId",
          "type": "uint256"
        }
      ],
      "name": "approve",
      "outputs": [],
      "stateMutability": "nonpayable",
      "type": "function"
    },
    {
      "inputs": [
        {
          "internalType": "address",
          "name": "owner",
          "type": "address"
        }
      ],
      "name": "balanceOf",
      "outputs": [
        {
          "internalType": "uint256",
          "name": "",
          "type": "uint256"
        }
      ],
      "stateMutability": "view",
      "type": "function"
    },
    {
      "inputs": [],
      "name": "electionContractAddress",
      "outputs": [
        {
          "internalType": "address",
          "name": "",
          "type": "address"
        }
      ],
      "stateMutability": "view",
      "type": "function"
    },
    {
      "inputs": [],
      "name": "electionId",
      "outputs": [
        {
          "internalType": "uint256",
          "name": "",
          "type": "uint256"
        }
      ],
      "stateMutability": "view",
      "type": "function"
    },
    {
      "inputs": [
        {
          "internalType": "uint256",
          "name": "tokenId",
          "type": "uint256"
        }
      ],
      "name": "getApproved",
      "outputs": [
        {
          "internalType": "address",
          "name": "",
          "type": "address"
        }
      ],
      "stateMutability": "view",
      "type": "function"
    },
    {
      "inputs": [
        {
          "internalType": "uint256",
          "name": "_tokenId",
          "type": "uint256"
        }
      ],
      "name": "getTokenURI",
      "outputs": [
        {
          "internalType": "string",
          "name": "",
          "type": "string"
        }
      ],
      "stateMutability": "view",
      "type": "function"
    },
    {
      "inputs": [
        {
          "internalType": "address",
          "name": "owner",
          "type": "address"
        },
        {
          "internalType": "address",
          "name": "operator",
          "type": "address"
        }
      ],
      "name": "isApprovedForAll",
      "outputs": [
        {
          "internalType": "bool",
          "name": "",
          "type": "bool"
        }
      ],
      "stateMutability": "view",
      "type": "function"
    },
    {
      "inputs": [
        {
          "internalType": "address",
          "name": "_to",
          "type": "address"
        },
        {
          "internalType": "string",
          "name": "_tokenURI",
          "type": "string"
        }
      ],
      "name": "mintNFT",
      "outputs": [],
      "stateMutability": "nonpayable",
      "type": "function"
    },
    {
      "inputs": [],
      "name": "name",
      "outputs": [
        {
          "internalType": "string",
          "name": "",
          "type": "string"
        }
      ],
      "stateMutability": "view",
      "type": "function"
    },
    {
      "inputs": [
        {
          "internalType": "uint256",
          "name": "tokenId",
          "type": "uint256"
        }
      ],
      "name": "ownerOf",
      "outputs": [
        {
          "internalType": "address",
          "name": "",
          "type": "address"
        }
      ],
      "stateMutability": "view",
      "type": "function"
    },
    {
      "inputs": [
        {
          "internalType": "address",
          "name": "from",
          "type": "address"
        },
        {
          "internalType": "address",
          "name": "to",
          "type": "address"
        },
        {
          "internalType": "uint256",
          "name": "tokenId",
          "type": "uint256"
        }
      ],
      "name": "safeTransferFrom",
      "outputs": [],
      "stateMutability": "nonpayable",
      "type": "function"
    },
    {
      "inputs": [
        {
          "internalType": "address",
          "name": "from",
          "type": "address"
        },
        {
          "internalType": "address",
          "name": "to",
          "type": "address"
        },
        {
          "internalType": "uint256",
          "name": "tokenId",
          "type": "uint256"
        },
        {
          "internalType": "bytes",
          "name": "data",
          "type": "bytes"
        }
      ],
      "name": "safeTransferFrom",
      "outputs": [],
      "stateMutability": "nonpayable",
      "type": "function"
    },
    {
      "inputs": [
        {
          "internalType": "address",
          "name": "operator",
          "type": "address"
        },
        {
          "internalType": "bool",
          "name": "approved",
          "type": "bool"
        }
      ],
      "name": "setApprovalForAll",
      "outputs": [],
      "stateMutability": "nonpayable",
      "type": "function"
    },
    {
      "inputs": [
        {
          "internalType": "string",
          "name": "_newBaseTokenURI",
          "type": "string"
        }
      ],
      "name": "setBaseTokenURI",
      "outputs": [],
      "stateMutability": "nonpayable",
      "type": "function"
    },
    {
      "inputs": [
        {
          "internalType": "bytes4",
          "name": "interfaceId",
          "type": "bytes4"
        }
      ],
      "name": "supportsInterface",
      "outputs": [
        {
          "internalType": "bool",
          "name": "",
          "type": "bool"
        }
      ],
      "stateMutability": "view",
      "type": "function"
    },
    {
      "inputs": [],
      "name": "symbol",
      "outputs": [
        {
          "internalType": "string",
          "name": "",
          "type": "string"
        }
      ],
      "stateMutability": "view",
      "type": "function"
    },
    {
      "inputs": [],
      "name": "tokenIdCounter",
      "outputs": [
        {
          "internalType": "uint256",
          "name": "",
          "type": "uint256"
        }
      ],
      "stateMutability": "view",
      "type": "function"
    },
    {
      "inputs": [
        {
          "internalType": "uint256",
          "name": "tokenId",
          "type": "uint256"
        }
      ],
      "name": "tokenURI",
      "outputs": [
        {
          "internalType": "string",
          "name": "",
          "type": "string"
        }
      ],
      "stateMutability": "view",
      "type": "function"
    },
    {
      "inputs": [
        {
          "internalType": "address",
          "name": "from",
          "type": "address"
        },
        {
          "internalType": "address",
          "name": "to",
          "type": "address"
        },
        {
          "internalType": "uint256",
          "name": "tokenId",
          "type": "uint256"
        }
      ],
      "name": "transferFrom",
      "outputs": [],
      "stateMutability": "nonpayable",
      "type": "function"
    }
  ],
  "bytecode": "0x60806040523480156200001157600080fd5b5060405162002c9238038062002c9283398181016040528101906200003791906200017b565b6040518060400160405280600c81526020017f456c656374696f6e204e465400000000000000000000000000000000000000008152506040518060400160405280600481526020017f454e4654000000000000000000000000000000000000000000000000000000008152508160009081620000b4919062000427565b508060019081620000c6919062000427565b50505080600660006101000a81548173ffffffffffffffffffffffffffffffffffffffff021916908373ffffffffffffffffffffffffffffffffffffffff160217905550506200050e565b600080fd5b600073ffffffffffffffffffffffffffffffffffffffff82169050919050565b6000620001438262000116565b9050919050565b620001558162000136565b81146200016157600080fd5b50565b60008151905062000175816200014a565b92915050565b60006020828403121562000194576200019362000111565b5b6000620001a48482850162000164565b91505092915050565b600081519050919050565b7f4e487b7100000000000000000000000000000000000000000000000000000000600052604160045260246000fd5b7f4e487b7100000000000000000000000000000000000000000000000000000000600052602260045260246000fd5b600060028204905060018216806200022f57607f821691505b602082108103620002455762000244620001e7565b5b50919050565b60008190508160005260206000209050919050565b60006020601f8301049050919050565b600082821b905092915050565b600060088302620002af7fffffffffffffffffffffffffffffffffffffffffffffffffffffffffffffffff8262000270565b620002bb868362000270565b95508019841693508086168417925050509392505050565b6000819050919050565b6000819050919050565b60006200030862000302620002fc84620002d3565b620002dd565b620002d3565b9050919050565b6000819050919050565b6200032483620002e7565b6200033c62000333826200030f565b8484546200027d565b825550505050565b600090565b6200035362000344565b6200036081848462000319565b505050565b5b8181101562000388576200037c60008262000349565b60018101905062000366565b5050565b601f821115620003d757620003a1816200024b565b620003ac8462000260565b81016020851015620003bc578190505b620003d4620003cb8562000260565b83018262000365565b50505b505050565b600082821c905092915050565b6000620003fc60001984600802620003dc565b1980831691505092915050565b6000620004178383620003e9565b9150826002028217905092915050565b6200043282620001ad565b67ffffffffffffffff8111156200044e576200044d620001b8565b5b6200045a825462000216565b620004678282856200038c565b600060209050601f8311600181146200049f57600084156200048a578287015190505b62000496858262000409565b86555062000506565b601f198416620004af866200024b565b60005b82811015620004d957848901518255600182019150602085019450602081019050620004b2565b86831015620004f95784890151620004f5601f891682620003e9565b8355505b6001600288020188555050505b505050505050565b612774806200051e6000396000f3fe608060405234801561001057600080fd5b50600436106101215760003560e01c80636352211e116100ad578063b88d4fde11610071578063b88d4fde1461031a578063c87b56dd14610336578063e985e9c514610366578063eacabe1414610396578063fd54fb66146103b257610121565b80636352211e1461026257806370a082311461029257806395d89b41146102c257806398bdf6f5146102e0578063a22cb465146102fe57610121565b8063095ea7b3116100f4578063095ea7b3146101c257806323b872dd146101de57806330176e13146101fa5780633bb3a24d1461021657806342842e0e1461024657610121565b806301ffc9a714610126578063051364d41461015657806306fdde0314610174578063081812fc14610192575b600080fd5b610140600480360381019061013b9190611a2f565b6103d0565b60405161014d9190611a77565b60405180910390f35b61015e6104b2565b60405161016b9190611aab565b60405180910390f35b61017c6104b8565b6040516101899190611b56565b60405180910390f35b6101ac60048036038101906101a79190611ba4565b61054a565b6040516101b99190611c12565b60405180910390f35b6101dc60048036038101906101d79190611c59565b610566565b005b6101f860048036038101906101f39190611c99565b61057c565b005b610214600480360381019061020f9190611e21565b61067e565b005b610230600480360381019061022b9190611ba4565b610721565b60405161023d9190611b56565b60405180910390f35b610260600480360381019061025b9190611c99565b6107c6565b005b61027c60048036038101906102779190611ba4565b6107e6565b6040516102899190611c12565b60405180910390f35b6102ac60048036038101906102a79190611e6a565b6107f8565b6040516102b99190611aab565b60405180910390f35b6102ca6108b2565b6040516102d79190611b56565b60405180910390f35b6102e8610944565b6040516102f59190611aab565b60405180910390f35b61031860048036038101906103139190611ec3565b61094a565b005b610334600480360381019061032f9190611fa4565b610960565b005b610350600480360381019061034b9190611ba4565b61097d565b60405161035d9190611b56565b60405180910390f35b610380600480360381019061037b9190612027565b6109e6565b60405161038d9190611a77565b60405180910390f35b6103b060048036038101906103ab9190612067565b610a7a565b005b6103ba610ba7565b6040516103c79190611c12565b60405180910390f35b60007f80ac58cd000000000000000000000000000000000000000000000000000000007bffffffffffffffffffffffffffffffffffffffffffffffffffffffff1916827bffffffffffffffffffffffffffffffffffffffffffffffffffffffff1916148061049b57507f5b5e139f000000000000000000000000000000000000000000000000000000007bffffffffffffffffffffffffffffffffffffffffffffffffffffffff1916827bffffffffffffffffffffffffffffffffffffffffffffffffffffffff1916145b806104ab57506104aa82610bcd565b5b9050919050565b60075481565b6060600080546104c7906120f2565b80601f01602080910402602001604051908101604052809291908181526020018280546104f3906120f2565b80156105405780601f1061051557610100808354040283529160200191610540565b820191906000526020600020905b81548152906001019060200180831161052357829003601f168201915b5050505050905090565b600061055582610c37565b5061055f82610cbf565b9050919050565b6105788282610573610cfc565b610d04565b5050565b600073ffffffffffffffffffffffffffffffffffffffff168273ffffffffffffffffffffffffffffffffffffffff16036105ee5760006040517f64a0ae920000000000000000000000000000000000000000000000000000000081526004016105e59190611c12565b60405180910390fd5b600061060283836105fd610cfc565b610d16565b90508373ffffffffffffffffffffffffffffffffffffffff168173ffffffffffffffffffffffffffffffffffffffff1614610678578382826040517f64283d7b00000000000000000000000000000000000000000000000000000000815260040161066f93929190612123565b60405180910390fd5b50505050565b600660009054906101000a900473ffffffffffffffffffffffffffffffffffffffff1673ffffffffffffffffffffffffffffffffffffffff163373ffffffffffffffffffffffffffffffffffffffff161461070e576040517f08c379a0000000000000000000000000000000000000000000000000000000008152600401610705906121cc565b60405180910390fd5b806009908161071d9190612398565b5050565b6060600a60008381526020019081526020016000208054610741906120f2565b80601f016020809104026020016040519081016040528092919081815260200182805461076d906120f2565b80156107ba5780601f1061078f576101008083540402835291602001916107ba565b820191906000526020600020905b81548152906001019060200180831161079d57829003601f168201915b50505050509050919050565b6107e183838360405180602001604052806000815250610960565b505050565b60006107f182610c37565b9050919050565b60008073ffffffffffffffffffffffffffffffffffffffff168273ffffffffffffffffffffffffffffffffffffffff160361086b5760006040517f89c62b640000000000000000000000000000000000000000000000000000000081526004016108629190611c12565b60405180910390fd5b600360008373ffffffffffffffffffffffffffffffffffffffff1673ffffffffffffffffffffffffffffffffffffffff168152602001908152602001600020549050919050565b6060600180546108c1906120f2565b80601f01602080910402602001604051908101604052809291908181526020018280546108ed906120f2565b801561093a5780601f1061090f5761010080835404028352916020019161093a565b820191906000526020600020905b81548152906001019060200180831161091d57829003601f168201915b5050505050905090565b60085481565b61095c610955610cfc565b8383610f30565b5050565b61096b84848461057c565b6109778484848461109f565b50505050565b606061098882610c37565b506000610993611256565b905060008151116109b357604051806020016040528060008152506109de565b806109bd846112e8565b6040516020016109ce9291906124a6565b6040516020818303038152906040525b915050919050565b6000600560008473ffffffffffffffffffffffffffffffffffffffff1673ffffffffffffffffffffffffffffffffffffffff16815260200190815260200160002060008373ffffffffffffffffffffffffffffffffffffffff1673ffffffffffffffffffffffffffffffffffffffff16815260200190815260200160002060009054906101000a900460ff16905092915050565b600660009054906101000a900473ffffffffffffffffffffffffffffffffffffffff1673ffffffffffffffffffffffffffffffffffffffff163373ffffffffffffffffffffffffffffffffffffffff1614610b0a576040517f08c379a0000000000000000000000000000000000000000000000000000000008152600401610b019061253c565b60405180910390fd5b60086000815480929190610b1d9061258b565b9190505550610b2e826008546113b6565b80600a600060085481526020019081526020016000209081610b509190612398565b508173ffffffffffffffffffffffffffffffffffffffff167fd35bb95e09c04b219e35047ce7b7b300e3384264ef84a40456943dbc0fc17c1460085483604051610b9b9291906125d3565b60405180910390a25050565b600660009054906101000a900473ffffffffffffffffffffffffffffffffffffffff1681565b60007f01ffc9a7000000000000000000000000000000000000000000000000000000007bffffffffffffffffffffffffffffffffffffffffffffffffffffffff1916827bffffffffffffffffffffffffffffffffffffffffffffffffffffffff1916149050919050565b600080610c43836113d4565b9050600073ffffffffffffffffffffffffffffffffffffffff168173ffffffffffffffffffffffffffffffffffffffff1603610cb657826040517f7e273289000000000000000000000000000000000000000000000000000000008152600401610cad9190611aab565b60405180910390fd5b80915050919050565b60006004600083815260200190815260200160002060009054906101000a900473ffffffffffffffffffffffffffffffffffffffff169050919050565b600033905090565b610d118383836001611411565b505050565b600080610d22846113d4565b9050600073ffffffffffffffffffffffffffffffffffffffff168373ffffffffffffffffffffffffffffffffffffffff1614610d6457610d638184866115d6565b5b600073ffffffffffffffffffffffffffffffffffffffff168173ffffffffffffffffffffffffffffffffffffffff1614610df557610da6600085600080611411565b6001600360008373ffffffffffffffffffffffffffffffffffffffff1673ffffffffffffffffffffffffffffffffffffffff168152602001908152602001600020600082825403925050819055505b600073ffffffffffffffffffffffffffffffffffffffff168573ffffffffffffffffffffffffffffffffffffffff1614610e78576001600360008773ffffffffffffffffffffffffffffffffffffffff1673ffffffffffffffffffffffffffffffffffffffff168152602001908152602001600020600082825401925050819055505b846002600086815260200190815260200160002060006101000a81548173ffffffffffffffffffffffffffffffffffffffff021916908373ffffffffffffffffffffffffffffffffffffffff160217905550838573ffffffffffffffffffffffffffffffffffffffff168273ffffffffffffffffffffffffffffffffffffffff167fddf252ad1be2c89b69c2b068fc378daa952ba7f163c4a11628f55a4df523b3ef60405160405180910390a4809150509392505050565b600073ffffffffffffffffffffffffffffffffffffffff168273ffffffffffffffffffffffffffffffffffffffff1603610fa157816040517f5b08ba18000000000000000000000000000000000000000000000000000000008152600401610f989190611c12565b60405180910390fd5b80600560008573ffffffffffffffffffffffffffffffffffffffff1673ffffffffffffffffffffffffffffffffffffffff16815260200190815260200160002060008473ffffffffffffffffffffffffffffffffffffffff1673ffffffffffffffffffffffffffffffffffffffff16815260200190815260200160002060006101000a81548160ff0219169083151502179055508173ffffffffffffffffffffffffffffffffffffffff168373ffffffffffffffffffffffffffffffffffffffff167f17307eab39ab6107e8899845ad3d59bd9653f200f220920489ca2b5937696c31836040516110929190611a77565b60405180910390a3505050565b60008373ffffffffffffffffffffffffffffffffffffffff163b1115611250578273ffffffffffffffffffffffffffffffffffffffff1663150b7a026110e3610cfc565b8685856040518563ffffffff1660e01b81526004016111059493929190612658565b6020604051808303816000875af192505050801561114157506040513d601f19601f8201168201806040525081019061113e91906126b9565b60015b6111c5573d8060008114611171576040519150601f19603f3d011682016040523d82523d6000602084013e611176565b606091505b5060008151036111bd57836040517f64a0ae920000000000000000000000000000000000000000000000000000000081526004016111b49190611c12565b60405180910390fd5b805181602001fd5b63150b7a0260e01b7bffffffffffffffffffffffffffffffffffffffffffffffffffffffff1916817bffffffffffffffffffffffffffffffffffffffffffffffffffffffff19161461124e57836040517f64a0ae920000000000000000000000000000000000000000000000000000000081526004016112459190611c12565b60405180910390fd5b505b50505050565b606060098054611265906120f2565b80601f0160208091040260200160405190810160405280929190818152602001828054611291906120f2565b80156112de5780601f106112b3576101008083540402835291602001916112de565b820191906000526020600020905b8154815290600101906020018083116112c157829003601f168201915b5050505050905090565b6060600060016112f78461169a565b01905060008167ffffffffffffffff81111561131657611315611cf6565b5b6040519080825280601f01601f1916602001820160405280156113485781602001600182028036833780820191505090505b509050600082602001820190505b6001156113ab578080600190039150507f3031323334353637383961626364656600000000000000000000000000000000600a86061a8153600a858161139f5761139e6126e6565b5b04945060008503611356575b819350505050919050565b6113d08282604051806020016040528060008152506117ed565b5050565b60006002600083815260200190815260200160002060009054906101000a900473ffffffffffffffffffffffffffffffffffffffff169050919050565b808061144a5750600073ffffffffffffffffffffffffffffffffffffffff168273ffffffffffffffffffffffffffffffffffffffff1614155b1561157e57600061145a84610c37565b9050600073ffffffffffffffffffffffffffffffffffffffff168373ffffffffffffffffffffffffffffffffffffffff16141580156114c557508273ffffffffffffffffffffffffffffffffffffffff168173ffffffffffffffffffffffffffffffffffffffff1614155b80156114d857506114d681846109e6565b155b1561151a57826040517fa9fbf51f0000000000000000000000000000000000000000000000000000000081526004016115119190611c12565b60405180910390fd5b811561157c57838573ffffffffffffffffffffffffffffffffffffffff168273ffffffffffffffffffffffffffffffffffffffff167f8c5be1e5ebec7d5bd14f71427d1e84f3dd0314c0f7b2291e5b200ac8c7c3b92560405160405180910390a45b505b836004600085815260200190815260200160002060006101000a81548173ffffffffffffffffffffffffffffffffffffffff021916908373ffffffffffffffffffffffffffffffffffffffff16021790555050505050565b6115e1838383611809565b61169557600073ffffffffffffffffffffffffffffffffffffffff168373ffffffffffffffffffffffffffffffffffffffff160361165657806040517f7e27328900000000000000000000000000000000000000000000000000000000815260040161164d9190611aab565b60405180910390fd5b81816040517f177e802f00000000000000000000000000000000000000000000000000000000815260040161168c929190612715565b60405180910390fd5b505050565b600080600090507a184f03e93ff9f4daa797ed6e38ed64bf6a1f01000000000000000083106116f8577a184f03e93ff9f4daa797ed6e38ed64bf6a1f01000000000000000083816116ee576116ed6126e6565b5b0492506040810190505b6d04ee2d6d415b85acef81000000008310611735576d04ee2d6d415b85acef8100000000838161172b5761172a6126e6565b5b0492506020810190505b662386f26fc10000831061176457662386f26fc10000838161175a576117596126e6565b5b0492506010810190505b6305f5e100831061178d576305f5e1008381611783576117826126e6565b5b0492506008810190505b61271083106117b25761271083816117a8576117a76126e6565b5b0492506004810190505b606483106117d557606483816117cb576117ca6126e6565b5b0492506002810190505b600a83106117e4576001810190505b80915050919050565b6117f783836118ca565b611804600084848461109f565b505050565b60008073ffffffffffffffffffffffffffffffffffffffff168373ffffffffffffffffffffffffffffffffffffffff16141580156118c157508273ffffffffffffffffffffffffffffffffffffffff168473ffffffffffffffffffffffffffffffffffffffff161480611882575061188184846109e6565b5b806118c057508273ffffffffffffffffffffffffffffffffffffffff166118a883610cbf565b73ffffffffffffffffffffffffffffffffffffffff16145b5b90509392505050565b600073ffffffffffffffffffffffffffffffffffffffff168273ffffffffffffffffffffffffffffffffffffffff160361193c5760006040517f64a0ae920000000000000000000000000000000000000000000000000000000081526004016119339190611c12565b60405180910390fd5b600061194a83836000610d16565b9050600073ffffffffffffffffffffffffffffffffffffffff168173ffffffffffffffffffffffffffffffffffffffff16146119be5760006040517f73c6ac6e0000000000000000000000000000000000000000000000000000000081526004016119b59190611c12565b60405180910390fd5b505050565b6000604051905090565b600080fd5b600080fd5b60007fffffffff0000000000000000000000000000000000000000000000000000000082169050919050565b611a0c816119d7565b8114611a1757600080fd5b50565b600081359050611a2981611a03565b92915050565b600060208284031215611a4557611a446119cd565b5b6000611a5384828501611a1a565b91505092915050565b60008115159050919050565b611a7181611a5c565b82525050565b6000602082019050611a8c6000830184611a68565b92915050565b6000819050919050565b611aa581611a92565b82525050565b6000602082019050611ac06000830184611a9c565b92915050565b600081519050919050565b600082825260208201905092915050565b60005b83811015611b00578082015181840152602081019050611ae5565b60008484015250505050565b6000601f19601f8301169050919050565b6000611b2882611ac6565b611b328185611ad1565b9350611b42818560208601611ae2565b611b4b81611b0c565b840191505092915050565b60006020820190508181036000830152611b708184611b1d565b905092915050565b611b8181611a92565b8114611b8c57600080fd5b50565b600081359050611b9e81611b78565b92915050565b600060208284031215611bba57611bb96119cd565b5b6000611bc884828501611b8f565b91505092915050565b600073ffffffffffffffffffffffffffffffffffffffff82169050919050565b6000611bfc82611bd1565b9050919050565b611c0c81611bf1565b82525050565b6000602082019050611c276000830184611c03565b92915050565b611c3681611bf1565b8114611c4157600080fd5b50565b600081359050611c5381611c2d565b92915050565b60008060408385031215611c7057611c6f6119cd565b5b6000611c7e85828601611c44565b9250506020611c8f85828601611b8f565b9150509250929050565b600080600060608486031215611cb257611cb16119cd565b5b6000611cc086828701611c44565b9350506020611cd186828701611c44565b9250506040611ce286828701611b8f565b9150509250925092565b600080fd5b600080fd5b7f4e487b7100000000000000000000000000000000000000000000000000000000600052604160045260246000fd5b611d2e82611b0c565b810181811067ffffffffffffffff82111715611d4d57611d4c611cf6565b5b80604052505050565b6000611d606119c3565b9050611d6c8282611d25565b919050565b600067ffffffffffffffff821115611d8c57611d8b611cf6565b5b611d9582611b0c565b9050602081019050919050565b82818337600083830152505050565b6000611dc4611dbf84611d71565b611d56565b905082815260208101848484011115611de057611ddf611cf1565b5b611deb848285611da2565b509392505050565b600082601f830112611e0857611e07611cec565b5b8135611e18848260208601611db1565b91505092915050565b600060208284031215611e3757611e366119cd565b5b600082013567ffffffffffffffff811115611e5557611e546119d2565b5b611e6184828501611df3565b91505092915050565b600060208284031215611e8057611e7f6119cd565b5b6000611e8e84828501611c44565b91505092915050565b611ea081611a5c565b8114611eab57600080fd5b50565b600081359050611ebd81611e97565b92915050565b60008060408385031215611eda57611ed96119cd565b5b6000611ee885828601611c44565b9250506020611ef985828601611eae565b9150509250929050565b600067ffffffffffffffff821115611f1e57611f1d611cf6565b5b611f2782611b0c565b9050602081019050919050565b6000611f47611f4284611f03565b611d56565b905082815260208101848484011115611f6357611f62611cf1565b5b611f6e848285611da2565b509392505050565b600082601f830112611f8b57611f8a611cec565b5b8135611f9b848260208601611f34565b91505092915050565b60008060008060808587031215611fbe57611fbd6119cd565b5b6000611fcc87828801611c44565b9450506020611fdd87828801611c44565b9350506040611fee87828801611b8f565b925050606085013567ffffffffffffffff81111561200f5761200e6119d2565b5b61201b87828801611f76565b91505092959194509250565b6000806040838503121561203e5761203d6119cd565b5b600061204c85828601611c44565b925050602061205d85828601611c44565b9150509250929050565b6000806040838503121561207e5761207d6119cd565b5b600061208c85828601611c44565b925050602083013567ffffffffffffffff8111156120ad576120ac6119d2565b5b6120b985828601611df3565b9150509250929050565b7f4e487b7100000000000000000000000000000000000000000000000000000000600052602260045260246000fd5b6000600282049050600182168061210a57607f821691505b60208210810361211d5761211c6120c3565b5b50919050565b60006060820190506121386000830186611c03565b6121456020830185611a9c565b6121526040830184611c03565b949350505050565b7f4f6e6c792074686520656c656374696f6e20636f6e74726163742063616e207360008201527f6574206261736520555249000000000000000000000000000000000000000000602082015250565b60006121b6602b83611ad1565b91506121c18261215a565b604082019050919050565b600060208201905081810360008301526121e5816121a9565b9050919050565b60008190508160005260206000209050919050565b60006020601f8301049050919050565b600082821b905092915050565b60006008830261224e7fffffffffffffffffffffffffffffffffffffffffffffffffffffffffffffffff82612211565b6122588683612211565b95508019841693508086168417925050509392505050565b6000819050919050565b600061229561229061228b84611a92565b612270565b611a92565b9050919050565b6000819050919050565b6122af8361227a565b6122c36122bb8261229c565b84845461221e565b825550505050565b600090565b6122d86122cb565b6122e38184846122a6565b505050565b5b81811015612307576122fc6000826122d0565b6001810190506122e9565b5050565b601f82111561234c5761231d816121ec565b61232684612201565b81016020851015612335578190505b61234961234185612201565b8301826122e8565b50505b505050565b600082821c905092915050565b600061236f60001984600802612351565b1980831691505092915050565b6000612388838361235e565b9150826002028217905092915050565b6123a182611ac6565b67ffffffffffffffff8111156123ba576123b9611cf6565b5b6123c482546120f2565b6123cf82828561230b565b600060209050601f83116001811461240257600084156123f0578287015190505b6123fa858261237c565b865550612462565b601f198416612410866121ec565b60005b8281101561243857848901518255600182019150602085019450602081019050612413565b868310156124555784890151612451601f89168261235e565b8355505b6001600288020188555050505b505050505050565b600081905092915050565b600061248082611ac6565b61248a818561246a565b935061249a818560208601611ae2565b80840191505092915050565b60006124b28285612475565b91506124be8284612475565b91508190509392505050565b7f4f6e6c792074686520656c656374696f6e20636f6e74726163742063616e206d60008201527f696e74204e465473000000000000000000000000000000000000000000000000602082015250565b6000612526602883611ad1565b9150612531826124ca565b604082019050919050565b6000602082019050818103600083015261255581612519565b9050919050565b7f4e487b7100000000000000000000000000000000000000000000000000000000600052601160045260246000fd5b600061259682611a92565b91507fffffffffffffffffffffffffffffffffffffffffffffffffffffffffffffffff82036125c8576125c761255c565b5b600182019050919050565b60006040820190506125e86000830185611a9c565b81810360208301526125fa8184611b1d565b90509392505050565b600081519050919050565b600082825260208201905092915050565b600061262a82612603565b612634818561260e565b9350612644818560208601611ae2565b61264d81611b0c565b840191505092915050565b600060808201905061266d6000830187611c03565b61267a6020830186611c03565b6126876040830185611a9c565b8181036060830152612699818461261f565b905095945050505050565b6000815190506126b381611a03565b92915050565b6000602082840312156126cf576126ce6119cd565b5b60006126dd848285016126a4565b91505092915050565b7f4e487b7100000000000000000000000000000000000000000000000000000000600052601260045260246000fd5b600060408201905061272a6000830185611c03565b6127376020830184611a9c565b939250505056fea26469706673582212203d104bb90e14961013258c83eabd8347672d7d0fc82063aaa64f94bf7cf97c5d64736f6c63430008160033",
  "linkReferences": {},
  "deployedLinkReferences": {}
}