{
  "_format": "hh-sol-artifact-1",
  "contractName": "Voting",
  "sourceName": "contracts/Voting.sol",
  "abi": [
    {
      "inputs": [],
      "stateMutability": "nonpayable",
      "type": "constructor"
    },
    {
      "anonymous": false,
      "inputs": [
        {
          "indexed": true,
          "internalType": "uint256",
          "name": "id",
          "type": "uint256"
        },
        {
          "indexed": false,
          "internalType": "string",
          "name": "name",
          "type": "string"
        }
      ],
      "name": "CandidateAdded",
      "type": "event"
    },
    {
      "anonymous": false,
      "inputs": [
        {
          "indexed": false,
          "internalType": "uint256",
          "name": "newDuration",
          "type": "uint256"
        }
      ],
      "name": "ElectionDurationChanged",
      "type": "event"
    },
    {
      "anonymous": false,
      "inputs": [
        {
          "indexed": true,
          "internalType": "address",
          "name": "owner",
          "type": "address"
        }
      ],
      "name": "ElectionFinished",
      "type": "event"
    },
    {
      "anonymous": false,
      "inputs": [
        {
          "indexed": true,
          "internalType": "address",
          "name": "owner",
          "type": "address"
        }
      ],
      "name": "ElectionReset",
      "type": "event"
    },
    {
      "anonymous": false,
      "inputs": [
        {
          "indexed": true,
          "internalType": "address",
          "name": "owner",
          "type": "address"
        },
        {
          "indexed": false,
          "internalType": "uint256",
          "name": "startTimestamp",
          "type": "uint256"
        },
        {
          "indexed": false,
          "internalType": "uint256",
          "name": "endTimestamp",
          "type": "uint256"
        },
        {
          "indexed": false,
          "internalType": "string",
          "name": "title",
          "type": "string"
        }
      ],
      "name": "ElectionStarted",
      "type": "event"
    },
    {
      "anonymous": false,
      "inputs": [
        {
          "indexed": true,
          "internalType": "address",
          "name": "voter",
          "type": "address"
        },
        {
          "indexed": false,
          "internalType": "uint256",
          "name": "candidateId",
          "type": "uint256"
        }
      ],
      "name": "VoteCast",
      "type": "event"
    },
    {
      "inputs": [
        {
          "internalType": "string",
          "name": "_name",
          "type": "string"
        }
      ],
      "name": "addCandidate",
      "outputs": [],
      "stateMutability": "nonpayable",
      "type": "function"
    },
    {
      "inputs": [
        {
          "internalType": "uint256",
          "name": "",
          "type": "uint256"
        }
      ],
      "name": "candidates",
      "outputs": [
        {
          "internalType": "uint256",
          "name": "id",
          "type": "uint256"
        },
        {
          "internalType": "string",
          "name": "name",
          "type": "string"
        },
        {
          "internalType": "uint256",
          "name": "numberOfVotes",
          "type": "uint256"
        }
      ],
      "stateMutability": "view",
      "type": "function"
    },
    {
      "inputs": [
        {
          "internalType": "uint256",
          "name": "_newDuration",
          "type": "uint256"
        }
      ],
      "name": "changeElectionDuration",
      "outputs": [],
      "stateMutability": "nonpayable",
      "type": "function"
    },
    {
      "inputs": [],
      "name": "checkElectionPeriod",
      "outputs": [
        {
          "internalType": "bool",
          "name": "",
          "type": "bool"
        }
      ],
      "stateMutability": "view",
      "type": "function"
    },
    {
      "inputs": [],
      "name": "electionFinalised",
      "outputs": [
        {
          "internalType": "bool",
          "name": "",
          "type": "bool"
        }
      ],
      "stateMutability": "view",
      "type": "function"
    },
    {
      "inputs": [],
      "name": "electionID",
      "outputs": [
        {
          "internalType": "uint256",
          "name": "",
          "type": "uint256"
        }
      ],
      "stateMutability": "view",
      "type": "function"
    },
    {
      "inputs": [],
      "name": "electionNFTContract",
      "outputs": [
        {
          "internalType": "address",
          "name": "",
          "type": "address"
        }
      ],
      "stateMutability": "view",
      "type": "function"
    },
    {
      "inputs": [],
      "name": "electionStarted",
      "outputs": [
        {
          "internalType": "bool",
          "name": "",
          "type": "bool"
        }
      ],
      "stateMutability": "view",
      "type": "function"
    },
    {
      "inputs": [],
      "name": "electionTimer",
      "outputs": [
        {
          "internalType": "uint256",
          "name": "",
          "type": "uint256"
        }
      ],
      "stateMutability": "view",
      "type": "function"
    },
    {
      "inputs": [],
      "name": "electionTitle",
      "outputs": [
        {
          "internalType": "string",
          "name": "",
          "type": "string"
        }
      ],
      "stateMutability": "view",
      "type": "function"
    },
    {
      "inputs": [
        {
          "internalType": "address",
          "name": "",
          "type": "address"
        }
      ],
      "name": "eligibleVoters",
      "outputs": [
        {
          "internalType": "bool",
          "name": "",
          "type": "bool"
        }
      ],
      "stateMutability": "view",
      "type": "function"
    },
    {
      "inputs": [],
      "name": "endElection",
      "outputs": [],
      "stateMutability": "nonpayable",
      "type": "function"
    },
    {
      "inputs": [],
      "name": "generateMetadata",
      "outputs": [
        {
          "components": [
            {
              "internalType": "uint256",
              "name": "electionID",
              "type": "uint256"
            },
            {
              "internalType": "uint256",
              "name": "winnerID",
              "type": "uint256"
            },
            {
              "internalType": "string",
              "name": "winnerName",
              "type": "string"
            },
            {
              "internalType": "uint256",
              "name": "numberOfVotes",
              "type": "uint256"
            },
            {
              "internalType": "uint256",
              "name": "startTime",
              "type": "uint256"
            },
            {
              "internalType": "uint256",
              "name": "endTime",
              "type": "uint256"
            },
            {
              "internalType": "string",
              "name": "title",
              "type": "string"
            }
          ],
          "internalType": "struct Voting.ElectionMetadata",
          "name": "",
          "type": "tuple"
        }
      ],
      "stateMutability": "view",
      "type": "function"
    },
    {
      "inputs": [],
      "name": "getWinnerInfo",
      "outputs": [
        {
          "components": [
            {
              "internalType": "uint256",
              "name": "candidateID",
              "type": "uint256"
            },
            {
              "internalType": "string",
              "name": "name",
              "type": "string"
            },
            {
              "internalType": "uint256",
              "name": "numberOfVotes",
              "type": "uint256"
            },
            {
              "internalType": "uint256",
              "name": "electionID",
              "type": "uint256"
            }
          ],
          "internalType": "struct Voting.Winner",
          "name": "",
          "type": "tuple"
        }
      ],
      "stateMutability": "view",
      "type": "function"
    },
    {
      "inputs": [
        {
          "internalType": "address",
          "name": "_participant",
          "type": "address"
        },
        {
          "internalType": "string",
          "name": "_tokenURI",
          "type": "string"
        }
      ],
      "name": "mintResult",
      "outputs": [],
      "stateMutability": "nonpayable",
      "type": "function"
    },
    {
      "inputs": [
        {
          "internalType": "string",
          "name": "_tokenURI",
          "type": "string"
        }
      ],
      "name": "mintResultNFTs",
      "outputs": [],
      "stateMutability": "nonpayable",
      "type": "function"
    },
    {
      "inputs": [],
      "name": "owner",
      "outputs": [
        {
          "internalType": "address",
          "name": "",
          "type": "address"
        }
      ],
      "stateMutability": "view",
      "type": "function"
    },
    {
      "inputs": [
        {
          "internalType": "address",
          "name": "_eligible_voter",
          "type": "address"
        }
      ],
      "name": "registerVoter",
      "outputs": [],
      "stateMutability": "nonpayable",
      "type": "function"
    },
    {
      "inputs": [
        {
          "internalType": "address[]",
          "name": "_eligible_voters",
          "type": "address[]"
        }
      ],
      "name": "registerVoters",
      "outputs": [],
      "stateMutability": "nonpayable",
      "type": "function"
    },
    {
      "inputs": [],
      "name": "removeAllCandidates",
      "outputs": [],
      "stateMutability": "nonpayable",
      "type": "function"
    },
    {
      "inputs": [
        {
          "internalType": "uint256",
          "name": "_candidateId",
          "type": "uint256"
        }
      ],
      "name": "removeCandidate",
      "outputs": [],
      "stateMutability": "nonpayable",
      "type": "function"
    },
    {
      "inputs": [],
      "name": "resetAllVoterStatus",
      "outputs": [],
      "stateMutability": "nonpayable",
      "type": "function"
    },
    {
      "inputs": [],
      "name": "resetElection",
      "outputs": [],
      "stateMutability": "nonpayable",
      "type": "function"
    },
    {
      "inputs": [],
      "name": "retrieveVotes",
      "outputs": [
        {
          "components": [
            {
              "internalType": "uint256",
              "name": "id",
              "type": "uint256"
            },
            {
              "internalType": "string",
              "name": "name",
              "type": "string"
            },
            {
              "internalType": "uint256",
              "name": "numberOfVotes",
              "type": "uint256"
            }
          ],
          "internalType": "struct Voting.Candidate[]",
          "name": "",
          "type": "tuple[]"
        }
      ],
      "stateMutability": "view",
      "type": "function"
    },
    {
      "inputs": [
        {
          "internalType": "address",
          "name": "_electionNFTContract",
          "type": "address"
        }
      ],
      "name": "setElectionNFTContract",
      "outputs": [],
      "stateMutability": "nonpayable",
      "type": "function"
    },
    {
      "inputs": [
        {
          "internalType": "string",
          "name": "_electionTitle",
          "type": "string"
        },
        {
          "internalType": "string[]",
          "name": "_candidates",
          "type": "string[]"
        },
        {
          "internalType": "uint256",
          "name": "_votingDuration",
          "type": "uint256"
        }
      ],
      "name": "startElection",
      "outputs": [],
      "stateMutability": "nonpayable",
      "type": "function"
    },
    {
      "inputs": [
        {
          "internalType": "address",
          "name": "newOwner",
          "type": "address"
        }
      ],
      "name": "transferOwnership",
      "outputs": [],
      "stateMutability": "nonpayable",
      "type": "function"
    },
    {
      "inputs": [
        {
          "internalType": "uint256",
          "name": "_id",
          "type": "uint256"
        }
      ],
      "name": "voteTo",
      "outputs": [],
      "stateMutability": "nonpayable",
      "type": "function"
    },
    {
      "inputs": [
        {
          "internalType": "address",
          "name": "_voter",
          "type": "address"
        }
      ],
      "name": "voterStatus",
      "outputs": [
        {
          "internalType": "bool",
          "name": "",
          "type": "bool"
        }
      ],
      "stateMutability": "view",
      "type": "function"
    },
    {
      "inputs": [
        {
          "internalType": "address",
          "name": "",
          "type": "address"
        }
      ],
      "name": "voters",
      "outputs": [
        {
          "internalType": "bool",
          "name": "",
          "type": "bool"
        }
      ],
      "stateMutability": "view",
      "type": "function"
    },
    {
      "inputs": [],
      "name": "votingEndTimeStamp",
      "outputs": [
        {
          "internalType": "uint256",
          "name": "",
          "type": "uint256"
        }
      ],
      "stateMutability": "view",
      "type": "function"
    },
    {
      "inputs": [],
      "name": "votingStartTimeStamp",
      "outputs": [
        {
          "internalType": "uint256",
          "name": "",
          "type": "uint256"
        }
      ],
      "stateMutability": "view",
      "type": "function"
    }
  ],
  "bytecode": "0x6080604052600060015534801561001557600080fd5b5033600460006101000a81548173ffffffffffffffffffffffffffffffffffffffff021916908373ffffffffffffffffffffffffffffffffffffffff1602179055506142a8806100666000396000f3fe608060405234801561001057600080fd5b50600436106101f05760003560e01c80638da5cb5b1161010f578063d6c16fbb116100a2578063ef22089111610071578063ef22089114610539578063f2fde38b14610555578063f77683a014610571578063f8e78e9a1461057b576101f0565b8063d6c16fbb146104c3578063e8efd480146104e1578063e8f3052314610511578063e9b700181461051b576101f0565b8063d4608b72116100de578063d4608b7214610461578063d4a6cac81461046b578063d5346da114610489578063d55ec9c1146104a7576101f0565b80638da5cb5b146103d7578063a3ec138d146103f5578063ab5f136b14610425578063c546c3b214610443576101f0565b80633d7b995c1161018757806359f784681161015657806359f78468146103775780637c31024c14610381578063856f68421461039f5780638cef1565146103bb576101f0565b80633d7b995c146102f3578063462e91ec1461030f5780634a3999761461032b578063576cc4f214610347576101f0565b80632a73faaa116101c35780632a73faaa146102695780633477ee2e1461028757806338db6dd3146102b95780633c9a4df3146102d5576101f0565b8063031e5004146101f557806309e9d7e214610213578063128c14ba1461022f57806322bb26f71461024b575b600080fd5b6101fd610599565b60405161020a9190612cb8565b60405180910390f35b61022d60048036038101906102289190612d1a565b61069e565b005b61024960048036038101906102449190612e7c565b610912565b005b610253610b23565b6040516102609190612f28565b60405180910390f35b610271610d42565b60405161027e9190612f59565b60405180910390f35b6102a1600480360381019061029c9190612d1a565b610d48565b6040516102b093929190612fbe565b60405180910390f35b6102d360048036038101906102ce919061305a565b610e0a565b005b6102dd610f58565b6040516102ea9190612f59565b60405180910390f35b61030d60048036038101906103089190612d1a565b610f80565b005b61032960048036038101906103249190612e7c565b611279565b005b6103456004803603810190610340919061305a565b611464565b005b610361600480360381019061035c919061305a565b611537565b60405161036e91906130a2565b60405180910390f35b61037f6115f3565b005b610389611776565b60405161039691906130a2565b60405180910390f35b6103b960048036038101906103b491906131a3565b611789565b005b6103d560048036038101906103d09190612d1a565b611a71565b005b6103df611bed565b6040516103ec919061323d565b60405180910390f35b61040f600480360381019061040a919061305a565b611c13565b60405161041c91906130a2565b60405180910390f35b61042d611c33565b60405161043a91906132fb565b60405180910390f35b61044b611f26565b604051610458919061331d565b60405180910390f35b610469611fb4565b005b61047361216d565b60405161048091906130a2565b60405180910390f35b61049161217e565b60405161049e91906130a2565b60405180910390f35b6104c160048036038101906104bc9190613402565b612191565b005b6104cb61232d565b6040516104d8919061323d565b60405180910390f35b6104fb60048036038101906104f6919061305a565b612351565b60405161050891906130a2565b60405180910390f35b610519612371565b005b610523612615565b6040516105309190612f59565b60405180910390f35b610553600480360381019061054e919061344b565b61261b565b005b61056f600480360381019061056a919061305a565b6127d1565b005b610579612914565b005b610583612a14565b6040516105909190612f59565b60405180910390f35b60606003805480602002602001604051908101604052809291908181526020016000905b828210156106955783829060005260206000209060030201604051806060016040529081600082015481526020016001820180546105fa906134d6565b80601f0160208091040260200160405190810160405280929190818152602001828054610626906134d6565b80156106735780601f1061064857610100808354040283529160200191610673565b820191906000526020600020905b81548152906001019060200180831161065657829003601f168201915b50505050508152602001600282015481525050815260200190600101906105bd565b50505050905090565b600460009054906101000a900473ffffffffffffffffffffffffffffffffffffffff1673ffffffffffffffffffffffffffffffffffffffff163373ffffffffffffffffffffffffffffffffffffffff161461072e576040517f08c379a000000000000000000000000000000000000000000000000000000000815260040161072590613553565b60405180910390fd5b6003805490508110610775576040517f08c379a000000000000000000000000000000000000000000000000000000000815260040161076c906135bf565b60405180910390fd5b600b60009054906101000a900460ff16156107c5576040517f08c379a00000000000000000000000000000000000000000000000000000000081526004016107bc9061362b565b60405180910390fd5b60008190505b60016003805490506107dd919061367a565b81101561086d5760036001826107f391906136ae565b81548110610804576108036136e2565b5b906000526020600020906003020160038281548110610826576108256136e2565b5b9060005260206000209060030201600082015481600001556001820181600101908161085291906138d3565b506002820154816002015590505080806001019150506107cb565b5060036001600380549050610882919061367a565b81548110610893576108926136e2565b5b90600052602060002090600302016000808201600090556001820160006108ba9190612a1a565b6002820160009055505060038054806108d6576108d56139bb565b5b60019003818190600052602060002090600302016000808201600090556001820160006109039190612a1a565b60028201600090555050905550565b600460009054906101000a900473ffffffffffffffffffffffffffffffffffffffff1673ffffffffffffffffffffffffffffffffffffffff163373ffffffffffffffffffffffffffffffffffffffff16146109a2576040517f08c379a000000000000000000000000000000000000000000000000000000000815260040161099990613553565b60405180910390fd5b600b60009054906101000a900460ff16156109f2576040517f08c379a00000000000000000000000000000000000000000000000000000000081526004016109e990613a5c565b60405180910390fd5b600060095403610a37576040517f08c379a0000000000000000000000000000000000000000000000000000000008152600401610a2e90613aee565b60405180910390fd5b60005b600880549050811015610b1f5760008054906101000a900473ffffffffffffffffffffffffffffffffffffffff1673ffffffffffffffffffffffffffffffffffffffff1663eacabe1460088381548110610a9757610a966136e2565b5b9060005260206000200160009054906101000a900473ffffffffffffffffffffffffffffffffffffffff16846040518363ffffffff1660e01b8152600401610ae0929190613b0e565b600060405180830381600087803b158015610afa57600080fd5b505af1158015610b0e573d6000803e3d6000fd5b505050508080600101915050610a3a565b5050565b610b2b612a5a565b600b60009054906101000a900460ff1615610b7b576040517f08c379a0000000000000000000000000000000000000000000000000000000008152600401610b7290613b8a565b60405180910390fd5b600060038054905011610bc3576040517f08c379a0000000000000000000000000000000000000000000000000000000008152600401610bba90613bf6565b60405180910390fd5b60008080600090505b600380549050811015610c3f578260038281548110610bee57610bed6136e2565b5b9060005260206000209060030201600201541115610c325760038181548110610c1a57610c196136e2565b5b90600052602060002090600302016002015492508091505b8080600101915050610bcc565b506000604051806080016040528060038481548110610c6157610c606136e2565b5b906000526020600020906003020160000154815260200160038481548110610c8c57610c8b6136e2565b5b90600052602060002090600302016001018054610ca8906134d6565b80601f0160208091040260200160405190810160405280929190818152602001828054610cd4906134d6565b8015610d215780601f10610cf657610100808354040283529160200191610d21565b820191906000526020600020905b815481529060010190602001808311610d0457829003601f168201915b50505050508152602001848152602001600154815250905080935050505090565b60095481565b60038181548110610d5857600080fd5b9060005260206000209060030201600091509050806000015490806001018054610d81906134d6565b80601f0160208091040260200160405190810160405280929190818152602001828054610dad906134d6565b8015610dfa5780601f10610dcf57610100808354040283529160200191610dfa565b820191906000526020600020905b815481529060010190602001808311610ddd57829003601f168201915b5050505050908060020154905083565b600460009054906101000a900473ffffffffffffffffffffffffffffffffffffffff1673ffffffffffffffffffffffffffffffffffffffff163373ffffffffffffffffffffffffffffffffffffffff1614610e9a576040517f08c379a0000000000000000000000000000000000000000000000000000000008152600401610e9190613553565b60405180910390fd5b6001600660008373ffffffffffffffffffffffffffffffffffffffff1673ffffffffffffffffffffffffffffffffffffffff16815260200190815260200160002060006101000a81548160ff0219169083151502179055506008819080600181540180825580915050600190039060005260206000200160009091909190916101000a81548173ffffffffffffffffffffffffffffffffffffffff021916908373ffffffffffffffffffffffffffffffffffffffff16021790555050565b6000600a544210610f6c5760009050610f7d565b42600a54610f7a919061367a565b90505b90565b600b60009054906101000a900460ff16610fcf576040517f08c379a0000000000000000000000000000000000000000000000000000000008152600401610fc690613c62565b60405180910390fd5b610fd761216d565b611016576040517f08c379a000000000000000000000000000000000000000000000000000000000815260040161100d90613cce565b60405180910390fd5b61101f33611537565b1561105f576040517f08c379a000000000000000000000000000000000000000000000000000000000815260040161105690613d60565b60405180910390fd5b60038054905081106110a6576040517f08c379a000000000000000000000000000000000000000000000000000000000815260040161109d906135bf565b60405180910390fd5b600660003373ffffffffffffffffffffffffffffffffffffffff1673ffffffffffffffffffffffffffffffffffffffff16815260200190815260200160002060009054906101000a900460ff16611132576040517f08c379a000000000000000000000000000000000000000000000000000000000815260040161112990613dcc565b60405180910390fd5b60038181548110611146576111456136e2565b5b9060005260206000209060030201600201600081548092919061116890613dec565b91905055506001600560003373ffffffffffffffffffffffffffffffffffffffff1673ffffffffffffffffffffffffffffffffffffffff16815260200190815260200160002060006101000a81548160ff0219169083151502179055506007339080600181540180825580915050600190039060005260206000200160009091909190916101000a81548173ffffffffffffffffffffffffffffffffffffffff021916908373ffffffffffffffffffffffffffffffffffffffff1602179055503373ffffffffffffffffffffffffffffffffffffffff167fa36cc2bebb74db33e9f88110a07ef56e1b31b24b4c4f51b54b1664266e29f45b8260405161126e9190612f59565b60405180910390a250565b600460009054906101000a900473ffffffffffffffffffffffffffffffffffffffff1673ffffffffffffffffffffffffffffffffffffffff163373ffffffffffffffffffffffffffffffffffffffff1614611309576040517f08c379a000000000000000000000000000000000000000000000000000000000815260040161130090613553565b60405180910390fd5b600b60009054906101000a900460ff16611358576040517f08c379a000000000000000000000000000000000000000000000000000000000815260040161134f90613c62565b60405180910390fd5b6000600780549050146113a0576040517f08c379a000000000000000000000000000000000000000000000000000000000815260040161139790613ea6565b60405180910390fd5b6003604051806060016040528060038054905081526020018381526020016000815250908060018154018082558091505060019003906000526020600020906003020160009091909190915060008201518160000155602082015181600101908161140b9190613ec6565b50604082015181600201555050600160038054905061142a919061367a565b7fe83b2a43e7e82d975c8a0a6d2f045153c869e111136a34d1889ab7b598e396a382604051611459919061331d565b60405180910390a250565b600460009054906101000a900473ffffffffffffffffffffffffffffffffffffffff1673ffffffffffffffffffffffffffffffffffffffff163373ffffffffffffffffffffffffffffffffffffffff16146114f4576040517f08c379a00000000000000000000000000000000000000000000000000000000081526004016114eb90613553565b60405180910390fd5b806000806101000a81548173ffffffffffffffffffffffffffffffffffffffff021916908373ffffffffffffffffffffffffffffffffffffffff16021790555050565b6000600b60009054906101000a900460ff16611588576040517f08c379a000000000000000000000000000000000000000000000000000000000815260040161157f90613c62565b60405180910390fd5b60011515600560008473ffffffffffffffffffffffffffffffffffffffff1673ffffffffffffffffffffffffffffffffffffffff16815260200190815260200160002060009054906101000a900460ff161515036115e957600190506115ee565b600090505b919050565b600460009054906101000a900473ffffffffffffffffffffffffffffffffffffffff1673ffffffffffffffffffffffffffffffffffffffff163373ffffffffffffffffffffffffffffffffffffffff1614611683576040517f08c379a000000000000000000000000000000000000000000000000000000000815260040161167a90613553565b60405180910390fd5b600b60009054906101000a900460ff166116d2576040517f08c379a00000000000000000000000000000000000000000000000000000000081526004016116c990613c62565b60405180910390fd5b6000600b60006101000a81548160ff02191690831515021790555042600a819055506001600b60016101000a81548160ff021916908315150217905550600460009054906101000a900473ffffffffffffffffffffffffffffffffffffffff1673ffffffffffffffffffffffffffffffffffffffff167fdbeccdf642d2e5303d30402a5b34dd15059be4afdda8926ead7343c24ad210f660405160405180910390a2565b600b60019054906101000a900460ff1681565b600460009054906101000a900473ffffffffffffffffffffffffffffffffffffffff1673ffffffffffffffffffffffffffffffffffffffff163373ffffffffffffffffffffffffffffffffffffffff1614611819576040517f08c379a000000000000000000000000000000000000000000000000000000000815260040161181090613553565b60405180910390fd5b60001515600b60009054906101000a900460ff1615151461186f576040517f08c379a000000000000000000000000000000000000000000000000000000000815260040161186690613fe4565b60405180910390fd5b60001515600b60019054906101000a900460ff161515146118c5576040517f08c379a00000000000000000000000000000000000000000000000000000000081526004016118bc90614076565b60405180910390fd5b60018060008282546118d791906136ae565b925050819055505b600060038054905011156118fc576118f7600061069e565b6118df565b60005b82518110156119a2576003604051806060016040528083815260200185848151811061192e5761192d6136e2565b5b60200260200101518152602001600081525090806001815401808255809150506001900390600052602060002090600302016000909190919091506000820151816000015560208201518160010190816119889190613ec6565b5060408201518160020155505080806001019150506118ff565b5082600290816119b29190613ec6565b506001600b60006101000a81548160ff02191690831515021790555042600981905550603c816119e29190614096565b426119ed91906136ae565b600a81905550600460009054906101000a900473ffffffffffffffffffffffffffffffffffffffff1673ffffffffffffffffffffffffffffffffffffffff167f2203c6991cccdd511f009b8abe763b9cfadc82f4049da493c72b15071012764e600954600a546002604051611a649392919061415c565b60405180910390a2505050565b600460009054906101000a900473ffffffffffffffffffffffffffffffffffffffff1673ffffffffffffffffffffffffffffffffffffffff163373ffffffffffffffffffffffffffffffffffffffff1614611b01576040517f08c379a0000000000000000000000000000000000000000000000000000000008152600401611af890613553565b60405180910390fd5b600b60009054906101000a900460ff16611b50576040517f08c379a0000000000000000000000000000000000000000000000000000000008152600401611b4790613c62565b60405180910390fd5b60008111611b93576040517f08c379a0000000000000000000000000000000000000000000000000000000008152600401611b8a906141e6565b60405180910390fd5b603c81611ba09190614096565b600954611bad91906136ae565b600a819055507f72e4390a33c4eaf0e6bcf5b04f5d6f775dd71bb6cbe3965b7d0c460c619702f881604051611be29190612f59565b60405180910390a150565b600460009054906101000a900473ffffffffffffffffffffffffffffffffffffffff1681565b60056020528060005260406000206000915054906101000a900460ff1681565b611c3b612a82565b600b60009054906101000a900460ff1615611c8b576040517f08c379a0000000000000000000000000000000000000000000000000000000008152600401611c8290613b8a565b60405180910390fd5b600060038054905011611cd3576040517f08c379a0000000000000000000000000000000000000000000000000000000008152600401611cca90613bf6565b60405180910390fd5b60008080600090505b600380549050811015611d4f578260038281548110611cfe57611cfd6136e2565b5b9060005260206000209060030201600201541115611d425760038181548110611d2a57611d296136e2565b5b90600052602060002090600302016002015492508091505b8080600101915050611cdc565b506000604051806080016040528060038481548110611d7157611d706136e2565b5b906000526020600020906003020160000154815260200160038481548110611d9c57611d9b6136e2565b5b90600052602060002090600302016001018054611db8906134d6565b80601f0160208091040260200160405190810160405280929190818152602001828054611de4906134d6565b8015611e315780601f10611e0657610100808354040283529160200191611e31565b820191906000526020600020905b815481529060010190602001808311611e1457829003601f168201915b50505050508152602001848152602001600154815250905060006040518060e0016040528060015481526020018360000151815260200183602001518152602001836040015181526020016009548152602001600a54815260200160028054611e99906134d6565b80601f0160208091040260200160405190810160405280929190818152602001828054611ec5906134d6565b8015611f125780601f10611ee757610100808354040283529160200191611f12565b820191906000526020600020905b815481529060010190602001808311611ef557829003601f168201915b505050505081525090508094505050505090565b60028054611f33906134d6565b80601f0160208091040260200160405190810160405280929190818152602001828054611f5f906134d6565b8015611fac5780601f10611f8157610100808354040283529160200191611fac565b820191906000526020600020905b815481529060010190602001808311611f8f57829003601f168201915b505050505081565b600460009054906101000a900473ffffffffffffffffffffffffffffffffffffffff1673ffffffffffffffffffffffffffffffffffffffff163373ffffffffffffffffffffffffffffffffffffffff1614612044576040517f08c379a000000000000000000000000000000000000000000000000000000000815260040161203b90613553565b60405180910390fd5b60005b6007805490508110156120f7576000600560006007848154811061206e5761206d6136e2565b5b9060005260206000200160009054906101000a900473ffffffffffffffffffffffffffffffffffffffff1673ffffffffffffffffffffffffffffffffffffffff1673ffffffffffffffffffffffffffffffffffffffff16815260200190815260200160002060006101000a81548160ff0219169083151502179055508080600101915050612047565b50600760006121069190612abf565b600460009054906101000a900473ffffffffffffffffffffffffffffffffffffffff1673ffffffffffffffffffffffffffffffffffffffff167f9025efdebb25942b0e5b22ad8b3b075f774f7badd8ab70500d6c47352d78d17660405160405180910390a2565b600080612178610f58565b11905090565b600b60009054906101000a900460ff1681565b600460009054906101000a900473ffffffffffffffffffffffffffffffffffffffff1673ffffffffffffffffffffffffffffffffffffffff163373ffffffffffffffffffffffffffffffffffffffff1614612221576040517f08c379a000000000000000000000000000000000000000000000000000000000815260040161221890613553565b60405180910390fd5b60005b815181101561232957600160066000848481518110612246576122456136e2565b5b602002602001015173ffffffffffffffffffffffffffffffffffffffff1673ffffffffffffffffffffffffffffffffffffffff16815260200190815260200160002060006101000a81548160ff02191690831515021790555060088282815181106122b4576122b36136e2565b5b60200260200101519080600181540180825580915050600190039060005260206000200160009091909190916101000a81548173ffffffffffffffffffffffffffffffffffffffff021916908373ffffffffffffffffffffffffffffffffffffffff1602179055508080600101915050612224565b5050565b60008054906101000a900473ffffffffffffffffffffffffffffffffffffffff1681565b60066020528060005260406000206000915054906101000a900460ff1681565b600460009054906101000a900473ffffffffffffffffffffffffffffffffffffffff1673ffffffffffffffffffffffffffffffffffffffff163373ffffffffffffffffffffffffffffffffffffffff1614612401576040517f08c379a00000000000000000000000000000000000000000000000000000000081526004016123f890613553565b60405180910390fd5b600b60009054906101000a900460ff1615612451576040517f08c379a000000000000000000000000000000000000000000000000000000000815260040161244890613fe4565b60405180910390fd5b60005b600880549050811015612504576000600660006008848154811061247b5761247a6136e2565b5b9060005260206000200160009054906101000a900473ffffffffffffffffffffffffffffffffffffffff1673ffffffffffffffffffffffffffffffffffffffff1673ffffffffffffffffffffffffffffffffffffffff16815260200190815260200160002060006101000a81548160ff0219169083151502179055508080600101915050612454565b50600860006125139190612abf565b61251b611fb4565b6000600b60006101000a81548160ff02191690831515021790555060006009819055506000600a819055506000600b60016101000a81548160ff021916908315150217905550612569612914565b6040518060400160405280600c81526020017f4e6f207469746c65207965740000000000000000000000000000000000000000815250600290816125ad9190613ec6565b50600460009054906101000a900473ffffffffffffffffffffffffffffffffffffffff1673ffffffffffffffffffffffffffffffffffffffff167f9025efdebb25942b0e5b22ad8b3b075f774f7badd8ab70500d6c47352d78d17660405160405180910390a2565b600a5481565b600460009054906101000a900473ffffffffffffffffffffffffffffffffffffffff1673ffffffffffffffffffffffffffffffffffffffff163373ffffffffffffffffffffffffffffffffffffffff16146126ab576040517f08c379a00000000000000000000000000000000000000000000000000000000081526004016126a290613553565b60405180910390fd5b600b60009054906101000a900460ff16156126fb576040517f08c379a00000000000000000000000000000000000000000000000000000000081526004016126f290613a5c565b60405180910390fd5b600060095403612740576040517f08c379a000000000000000000000000000000000000000000000000000000000815260040161273790613aee565b60405180910390fd5b60008054906101000a900473ffffffffffffffffffffffffffffffffffffffff1673ffffffffffffffffffffffffffffffffffffffff1663eacabe1483836040518363ffffffff1660e01b815260040161279b929190613b0e565b600060405180830381600087803b1580156127b557600080fd5b505af11580156127c9573d6000803e3d6000fd5b505050505050565b600460009054906101000a900473ffffffffffffffffffffffffffffffffffffffff1673ffffffffffffffffffffffffffffffffffffffff163373ffffffffffffffffffffffffffffffffffffffff1614612861576040517f08c379a000000000000000000000000000000000000000000000000000000000815260040161285890613553565b60405180910390fd5b600073ffffffffffffffffffffffffffffffffffffffff168173ffffffffffffffffffffffffffffffffffffffff16036128d0576040517f08c379a00000000000000000000000000000000000000000000000000000000081526004016128c790614252565b60405180910390fd5b80600460006101000a81548173ffffffffffffffffffffffffffffffffffffffff021916908373ffffffffffffffffffffffffffffffffffffffff16021790555050565b600460009054906101000a900473ffffffffffffffffffffffffffffffffffffffff1673ffffffffffffffffffffffffffffffffffffffff163373ffffffffffffffffffffffffffffffffffffffff16146129a4576040517f08c379a000000000000000000000000000000000000000000000000000000000815260040161299b90613553565b60405180910390fd5b600b60009054906101000a900460ff16156129f4576040517f08c379a00000000000000000000000000000000000000000000000000000000081526004016129eb90613fe4565b60405180910390fd5b5b60006003805490501115612a1257612a0d600061069e565b6129f5565b565b60015481565b508054612a26906134d6565b6000825580601f10612a385750612a57565b601f016020900490600052602060002090810190612a569190612ae0565b5b50565b6040518060800160405280600081526020016060815260200160008152602001600081525090565b6040518060e00160405280600081526020016000815260200160608152602001600081526020016000815260200160008152602001606081525090565b5080546000825590600052602060002090810190612add9190612ae0565b50565b5b80821115612af9576000816000905550600101612ae1565b5090565b600081519050919050565b600082825260208201905092915050565b6000819050602082019050919050565b6000819050919050565b612b3c81612b29565b82525050565b600081519050919050565b600082825260208201905092915050565b60005b83811015612b7c578082015181840152602081019050612b61565b60008484015250505050565b6000601f19601f8301169050919050565b6000612ba482612b42565b612bae8185612b4d565b9350612bbe818560208601612b5e565b612bc781612b88565b840191505092915050565b6000606083016000830151612bea6000860182612b33565b5060208301518482036020860152612c028282612b99565b9150506040830151612c176040860182612b33565b508091505092915050565b6000612c2e8383612bd2565b905092915050565b6000602082019050919050565b6000612c4e82612afd565b612c588185612b08565b935083602082028501612c6a85612b19565b8060005b85811015612ca65784840389528151612c878582612c22565b9450612c9283612c36565b925060208a01995050600181019050612c6e565b50829750879550505050505092915050565b60006020820190508181036000830152612cd28184612c43565b905092915050565b6000604051905090565b600080fd5b600080fd5b612cf781612b29565b8114612d0257600080fd5b50565b600081359050612d1481612cee565b92915050565b600060208284031215612d3057612d2f612ce4565b5b6000612d3e84828501612d05565b91505092915050565b600080fd5b600080fd5b7f4e487b7100000000000000000000000000000000000000000000000000000000600052604160045260246000fd5b612d8982612b88565b810181811067ffffffffffffffff82111715612da857612da7612d51565b5b80604052505050565b6000612dbb612cda565b9050612dc78282612d80565b919050565b600067ffffffffffffffff821115612de757612de6612d51565b5b612df082612b88565b9050602081019050919050565b82818337600083830152505050565b6000612e1f612e1a84612dcc565b612db1565b905082815260208101848484011115612e3b57612e3a612d4c565b5b612e46848285612dfd565b509392505050565b600082601f830112612e6357612e62612d47565b5b8135612e73848260208601612e0c565b91505092915050565b600060208284031215612e9257612e91612ce4565b5b600082013567ffffffffffffffff811115612eb057612eaf612ce9565b5b612ebc84828501612e4e565b91505092915050565b6000608083016000830151612edd6000860182612b33565b5060208301518482036020860152612ef58282612b99565b9150506040830151612f0a6040860182612b33565b506060830151612f1d6060860182612b33565b508091505092915050565b60006020820190508181036000830152612f428184612ec5565b905092915050565b612f5381612b29565b82525050565b6000602082019050612f6e6000830184612f4a565b92915050565b600082825260208201905092915050565b6000612f9082612b42565b612f9a8185612f74565b9350612faa818560208601612b5e565b612fb381612b88565b840191505092915050565b6000606082019050612fd36000830186612f4a565b8181036020830152612fe58185612f85565b9050612ff46040830184612f4a565b949350505050565b600073ffffffffffffffffffffffffffffffffffffffff82169050919050565b600061302782612ffc565b9050919050565b6130378161301c565b811461304257600080fd5b50565b6000813590506130548161302e565b92915050565b6000602082840312156130705761306f612ce4565b5b600061307e84828501613045565b91505092915050565b60008115159050919050565b61309c81613087565b82525050565b60006020820190506130b76000830184613093565b92915050565b600067ffffffffffffffff8211156130d8576130d7612d51565b5b602082029050602081019050919050565b600080fd5b60006131016130fc846130bd565b612db1565b90508083825260208201905060208402830185811115613124576131236130e9565b5b835b8181101561316b57803567ffffffffffffffff81111561314957613148612d47565b5b8086016131568982612e4e565b85526020850194505050602081019050613126565b5050509392505050565b600082601f83011261318a57613189612d47565b5b813561319a8482602086016130ee565b91505092915050565b6000806000606084860312156131bc576131bb612ce4565b5b600084013567ffffffffffffffff8111156131da576131d9612ce9565b5b6131e686828701612e4e565b935050602084013567ffffffffffffffff81111561320757613206612ce9565b5b61321386828701613175565b925050604061322486828701612d05565b9150509250925092565b6132378161301c565b82525050565b6000602082019050613252600083018461322e565b92915050565b600060e0830160008301516132706000860182612b33565b5060208301516132836020860182612b33565b506040830151848203604086015261329b8282612b99565b91505060608301516132b06060860182612b33565b5060808301516132c36080860182612b33565b5060a08301516132d660a0860182612b33565b5060c083015184820360c08601526132ee8282612b99565b9150508091505092915050565b600060208201905081810360008301526133158184613258565b905092915050565b600060208201905081810360008301526133378184612f85565b905092915050565b600067ffffffffffffffff82111561335a57613359612d51565b5b602082029050602081019050919050565b600061337e6133798461333f565b612db1565b905080838252602082019050602084028301858111156133a1576133a06130e9565b5b835b818110156133ca57806133b68882613045565b8452602084019350506020810190506133a3565b5050509392505050565b600082601f8301126133e9576133e8612d47565b5b81356133f984826020860161336b565b91505092915050565b60006020828403121561341857613417612ce4565b5b600082013567ffffffffffffffff81111561343657613435612ce9565b5b613442848285016133d4565b91505092915050565b6000806040838503121561346257613461612ce4565b5b600061347085828601613045565b925050602083013567ffffffffffffffff81111561349157613490612ce9565b5b61349d85828601612e4e565b9150509250929050565b7f4e487b7100000000000000000000000000000000000000000000000000000000600052602260045260246000fd5b600060028204905060018216806134ee57607f821691505b602082108103613501576135006134a7565b5b50919050565b7f6e6f7420617574686f72697a656420746f20737461727420656c656374696f6e600082015250565b600061353d602083612f74565b915061354882613507565b602082019050919050565b6000602082019050818103600083015261356c81613530565b9050919050565b7f496e76616c69642063616e646964617465204944000000000000000000000000600082015250565b60006135a9601483612f74565b91506135b482613573565b602082019050919050565b600060208201905081810360008301526135d88161359c565b9050919050565b7f456c656374696f6e206973206f6e676f696e6700000000000000000000000000600082015250565b6000613615601383612f74565b9150613620826135df565b602082019050919050565b6000602082019050818103600083015261364481613608565b9050919050565b7f4e487b7100000000000000000000000000000000000000000000000000000000600052601160045260246000fd5b600061368582612b29565b915061369083612b29565b92508282039050818111156136a8576136a761364b565b5b92915050565b60006136b982612b29565b91506136c483612b29565b92508282019050808211156136dc576136db61364b565b5b92915050565b7f4e487b7100000000000000000000000000000000000000000000000000000000600052603260045260246000fd5b600081549050613720816134d6565b9050919050565b60008190508160005260206000209050919050565b60006020601f8301049050919050565b600082821b905092915050565b6000600883026137897fffffffffffffffffffffffffffffffffffffffffffffffffffffffffffffffff8261374c565b613793868361374c565b95508019841693508086168417925050509392505050565b6000819050919050565b60006137d06137cb6137c684612b29565b6137ab565b612b29565b9050919050565b6000819050919050565b6137ea836137b5565b6137fe6137f6826137d7565b848454613759565b825550505050565b600090565b613813613806565b61381e8184846137e1565b505050565b5b818110156138425761383760008261380b565b600181019050613824565b5050565b601f8211156138875761385881613727565b6138618461373c565b81016020851015613870578190505b61388461387c8561373c565b830182613823565b50505b505050565b600082821c905092915050565b60006138aa6000198460080261388c565b1980831691505092915050565b60006138c38383613899565b9150826002028217905092915050565b8181036138e15750506139b9565b6138ea82613711565b67ffffffffffffffff81111561390357613902612d51565b5b61390d82546134d6565b613918828285613846565b6000601f8311600181146139475760008415613935578287015490505b61393f85826138b7565b8655506139b2565b601f19841661395587613727565b965061396086613727565b60005b8281101561398857848901548255600182019150600185019450602081019050613963565b868310156139a557848901546139a1601f891682613899565b8355505b6001600288020188555050505b5050505050505b565b7f4e487b7100000000000000000000000000000000000000000000000000000000600052603160045260246000fd5b7f456c656374696f6e206973206f6e676f696e672c2063616e6e6f74206d696e7460008201527f204e465473207965740000000000000000000000000000000000000000000000602082015250565b6000613a46602983612f74565b9150613a51826139ea565b604082019050919050565b60006020820190508181036000830152613a7581613a39565b9050919050565b7f54696d657374616d7020697320302c20656c656374696f6e206e6f742065766560008201527f6e20737461727465640000000000000000000000000000000000000000000000602082015250565b6000613ad8602983612f74565b9150613ae382613a7c565b604082019050919050565b60006020820190508181036000830152613b0781613acb565b9050919050565b6000604082019050613b23600083018561322e565b8181036020830152613b358184612f85565b90509392505050565b7f456c656374696f6e206973207374696c6c206f6e676f696e6700000000000000600082015250565b6000613b74601983612f74565b9150613b7f82613b3e565b602082019050919050565b60006020820190508181036000830152613ba381613b67565b9050919050565b7f4e6f2063616e6469646174657320617661696c61626c65000000000000000000600082015250565b6000613be0601783612f74565b9150613beb82613baa565b602082019050919050565b60006020820190508181036000830152613c0f81613bd3565b9050919050565b7f6e6f20656c656374696f6e207965740000000000000000000000000000000000600082015250565b6000613c4c600f83612f74565b9150613c5782613c16565b602082019050919050565b60006020820190508181036000830152613c7b81613c3f565b9050919050565b7f456c656374696f6e20706572696f642068617320656e64656400000000000000600082015250565b6000613cb8601983612f74565b9150613cc382613c82565b602082019050919050565b60006020820190508181036000830152613ce781613cab565b9050919050565b7f596f7520616c726561647920766f7465642e20596f752063616e206f6e6c792060008201527f766f7465206f6e63652e00000000000000000000000000000000000000000000602082015250565b6000613d4a602a83612f74565b9150613d5582613cee565b604082019050919050565b60006020820190508181036000830152613d7981613d3d565b9050919050565b7f596f7520617265206e6f7420616e20656c696769626c6520766f7465722e0000600082015250565b6000613db6601e83612f74565b9150613dc182613d80565b602082019050919050565b60006020820190508181036000830152613de581613da9565b9050919050565b6000613df782612b29565b91507fffffffffffffffffffffffffffffffffffffffffffffffffffffffffffffffff8203613e2957613e2861364b565b5b600182019050919050565b7f43616e6e6f7420616464206e65772063616e64696461746573206f6e6365207660008201527f6f7465732068617665206265656e20636173742e000000000000000000000000602082015250565b6000613e90603483612f74565b9150613e9b82613e34565b604082019050919050565b60006020820190508181036000830152613ebf81613e83565b9050919050565b613ecf82612b42565b67ffffffffffffffff811115613ee857613ee7612d51565b5b613ef282546134d6565b613efd828285613846565b600060209050601f831160018114613f305760008415613f1e578287015190505b613f2885826138b7565b865550613f90565b601f198416613f3e86613727565b60005b82811015613f6657848901518255600182019150602085019450602081019050613f41565b86831015613f835784890151613f7f601f891682613899565b8355505b6001600288020188555050505b505050505050565b7f456c656374696f6e2069732063757272656e746c79206f6e676f696e67000000600082015250565b6000613fce601d83612f74565b9150613fd982613f98565b602082019050919050565b60006020820190508181036000830152613ffd81613fc1565b9050919050565b7f456c656374696f6e206973206e6f7420796574205265696e697469616c697a6560008201527f6400000000000000000000000000000000000000000000000000000000000000602082015250565b6000614060602183612f74565b915061406b82614004565b604082019050919050565b6000602082019050818103600083015261408f81614053565b9050919050565b60006140a182612b29565b91506140ac83612b29565b92508282026140ba81612b29565b915082820484148315176140d1576140d061364b565b5b5092915050565b600081546140e5816134d6565b6140ef8186612f74565b9450600182166000811461410a576001811461412057614153565b60ff198316865281151560200286019350614153565b61412985613727565b60005b8381101561414b5781548189015260018201915060208101905061412c565b808801955050505b50505092915050565b60006060820190506141716000830186612f4a565b61417e6020830185612f4a565b818103604083015261419081846140d8565b9050949350505050565b7f496e76616c6964206475726174696f6e00000000000000000000000000000000600082015250565b60006141d0601083612f74565b91506141db8261419a565b602082019050919050565b600060208201905081810360008301526141ff816141c3565b9050919050565b7f496e76616c6964206e6577206f776e6572206164647265737300000000000000600082015250565b600061423c601983612f74565b915061424782614206565b602082019050919050565b6000602082019050818103600083015261426b8161422f565b905091905056fea264697066735822122054a254a780d0b154761e382257e3d4b431e5c7cedfb614b3376271badcefce2e64736f6c63430008160033",
  "linkReferences": {},
  "deployedLinkReferences": {}
}