{
  "_format": "hh-sol-artifact-1",
  "contractName": "Suppliers",
  "sourceName": "contracts/Suppliers.sol",
  "abi": [
    {
      "inputs": [],
      "stateMutability": "nonpayable",
      "type": "constructor"
    },
    {
      "anonymous": false,
      "inputs": [
        {
          "indexed": true,
          "internalType": "uint256",
          "name": "supplierId",
          "type": "uint256"
        },
        {
          "indexed": false,
          "internalType": "string",
          "name": "name",
          "type": "string"
        },
        {
          "indexed": false,
          "internalType": "uint256",
          "name": "sustainabilityScore",
          "type": "uint256"
        },
        {
          "indexed": false,
          "internalType": "string",
          "name": "description",
          "type": "string"
        }
      ],
      "name": "SupplierAdded",
      "type": "event"
    },
    {
      "anonymous": false,
      "inputs": [
        {
          "indexed": true,
          "internalType": "uint256",
          "name": "supplierId",
          "type": "uint256"
        },
        {
          "indexed": false,
          "internalType": "uint256",
          "name": "newScore",
          "type": "uint256"
        },
        {
          "indexed": false,
          "internalType": "string",
          "name": "addedDescription",
          "type": "string"
        }
      ],
      "name": "SustainabilityScoreUpdated",
      "type": "event"
    },
    {
      "inputs": [
        {
          "internalType": "string",
          "name": "_name",
          "type": "string"
        },
        {
          "internalType": "uint256",
          "name": "_sustainabilityScore",
          "type": "uint256"
        },
        {
          "internalType": "string",
          "name": "_description",
          "type": "string"
        }
      ],
      "name": "addSupplier",
      "outputs": [],
      "stateMutability": "nonpayable",
      "type": "function"
    },
    {
      "inputs": [
        {
          "internalType": "uint256",
          "name": "_supplierId",
          "type": "uint256"
        }
      ],
      "name": "getSupplier",
      "outputs": [
        {
          "internalType": "string",
          "name": "name",
          "type": "string"
        },
        {
          "internalType": "uint256",
          "name": "sustainabilityScore",
          "type": "uint256"
        },
        {
          "internalType": "string",
          "name": "description",
          "type": "string"
        }
      ],
      "stateMutability": "view",
      "type": "function"
    },
    {
      "inputs": [],
      "name": "listSuppliers",
      "outputs": [
        {
          "internalType": "uint256[]",
          "name": "",
          "type": "uint256[]"
        }
      ],
      "stateMutability": "view",
      "type": "function"
    },
    {
      "inputs": [
        {
          "internalType": "uint256",
          "name": "",
          "type": "uint256"
        }
      ],
      "name": "suppliers",
      "outputs": [
        {
          "internalType": "string",
          "name": "name",
          "type": "string"
        },
        {
          "internalType": "uint256",
          "name": "sustainabilityScore",
          "type": "uint256"
        },
        {
          "internalType": "string",
          "name": "description",
          "type": "string"
        }
      ],
      "stateMutability": "view",
      "type": "function"
    },
    {
      "inputs": [
        {
          "internalType": "uint256",
          "name": "_supplierId",
          "type": "uint256"
        },
        {
          "internalType": "uint256",
          "name": "_newScore",
          "type": "uint256"
        },
        {
          "internalType": "string",
          "name": "_addedDescription",
          "type": "string"
        }
      ],
      "name": "updateSustainabilityScore",
      "outputs": [],
      "stateMutability": "nonpayable",
      "type": "function"
    }
  ],
  "bytecode": "0x60806040523480156200001157600080fd5b50620000746040518060400160405280600a81526020017f537570706c6965722041000000000000000000000000000000000000000000008152506055604051806060016040528060338152602001620015d5603391396200020260201b60201c565b620000d66040518060400160405280600a81526020017f537570706c696572204200000000000000000000000000000000000000000000815250604660405180606001604052806023815260200162001636602391396200020260201b60201c565b620001386040518060400160405280600a81526020017f537570706c696572204300000000000000000000000000000000000000000000815250605a6040518060600160405280602b81526020016200167f602b91396200020260201b60201c565b6200019a6040518060400160405280600a81526020017f537570706c696572204400000000000000000000000000000000000000000000815250603c6040518060600160405280602e815260200162001608602e91396200020260201b60201c565b620001fc6040518060400160405280600a81526020017f537570706c696572204500000000000000000000000000000000000000000000815250604b60405180606001604052806026815260200162001659602691396200020260201b60201c565b62000790565b6000604051806060016040528085815260200184815260200183815250908060018154018082558091505060019003906000526020600020906003020160009091909190915060008201518160000190816200025f919062000554565b5060208201518160010155604082015181600201908162000281919062000554565b50505060016000805490506200029891906200066a565b7fe3626c9ee0a0f78f740ad77292ea1a0a5c66ebdcf226a280ec27fb1a511e0d34848484604051620002cd9392919062000745565b60405180910390a2505050565b600081519050919050565b7f4e487b7100000000000000000000000000000000000000000000000000000000600052604160045260246000fd5b7f4e487b7100000000000000000000000000000000000000000000000000000000600052602260045260246000fd5b600060028204905060018216806200035c57607f821691505b60208210810362000372576200037162000314565b5b50919050565b60008190508160005260206000209050919050565b60006020601f8301049050919050565b600082821b905092915050565b600060088302620003dc7fffffffffffffffffffffffffffffffffffffffffffffffffffffffffffffffff826200039d565b620003e886836200039d565b95508019841693508086168417925050509392505050565b6000819050919050565b6000819050919050565b6000620004356200042f620004298462000400565b6200040a565b62000400565b9050919050565b6000819050919050565b620004518362000414565b6200046962000460826200043c565b848454620003aa565b825550505050565b600090565b6200048062000471565b6200048d81848462000446565b505050565b5b81811015620004b557620004a960008262000476565b60018101905062000493565b5050565b601f8211156200050457620004ce8162000378565b620004d9846200038d565b81016020851015620004e9578190505b62000501620004f8856200038d565b83018262000492565b50505b505050565b600082821c905092915050565b6000620005296000198460080262000509565b1980831691505092915050565b600062000544838362000516565b9150826002028217905092915050565b6200055f82620002da565b67ffffffffffffffff8111156200057b576200057a620002e5565b5b62000587825462000343565b62000594828285620004b9565b600060209050601f831160018114620005cc5760008415620005b7578287015190505b620005c3858262000536565b86555062000633565b601f198416620005dc8662000378565b60005b828110156200060657848901518255600182019150602085019450602081019050620005df565b8683101562000626578489015162000622601f89168262000516565b8355505b6001600288020188555050505b505050505050565b7f4e487b7100000000000000000000000000000000000000000000000000000000600052601160045260246000fd5b6000620006778262000400565b9150620006848362000400565b92508282039050818111156200069f576200069e6200063b565b5b92915050565b600082825260208201905092915050565b60005b83811015620006d6578082015181840152602081019050620006b9565b60008484015250505050565b6000601f19601f8301169050919050565b60006200070082620002da565b6200070c8185620006a5565b93506200071e818560208601620006b6565b6200072981620006e2565b840191505092915050565b6200073f8162000400565b82525050565b60006060820190508181036000830152620007618186620006f3565b905062000772602083018562000734565b8181036040830152620007868184620006f3565b9050949350505050565b610e3580620007a06000396000f3fe608060405234801561001057600080fd5b50600436106100575760003560e01c806325688bc41461005c578063263865b1146100785780634118fa3614610096578063cea23121146100b2578063e0620e1d146100e4575b600080fd5b61007660048036038101906100719190610785565b610116565b005b610080610126565b60405161008d91906108ce565b60405180910390f35b6100b060048036038101906100ab91906108f0565b6101be565b005b6100cc60048036038101906100c7919061095f565b61025a565b6040516100db93929190610a1a565b60405180910390f35b6100fe60048036038101906100f9919061095f565b6103a4565b60405161010d93929190610a1a565b60405180910390f35b610121838383610525565b505050565b60606000808054905067ffffffffffffffff81111561014857610147610624565b5b6040519080825280602002602001820160405280156101765781602001602082028036833780820191505090505b50905060005b6000805490508110156101b6578082828151811061019d5761019c610a5f565b5b602002602001018181525050808060010191505061017c565b508091505090565b81600084815481106101d3576101d2610a5f565b5b90600052602060002090600302016001018190555080600084815481106101fd576101fc610a5f565b5b9060005260206000209060030201600201908161021a9190610c9a565b50827ffc3fe9546dcde9e7c61bb371fd3e4b950730eeb2005b6f922367b554c8b61e8d838360405161024d929190610d6c565b60405180910390a2505050565b6000818154811061026a57600080fd5b906000526020600020906003020160009150905080600001805461028d90610abd565b80601f01602080910402602001604051908101604052809291908181526020018280546102b990610abd565b80156103065780601f106102db57610100808354040283529160200191610306565b820191906000526020600020905b8154815290600101906020018083116102e957829003601f168201915b50505050509080600101549080600201805461032190610abd565b80601f016020809104026020016040519081016040528092919081815260200182805461034d90610abd565b801561039a5780601f1061036f5761010080835404028352916020019161039a565b820191906000526020600020905b81548152906001019060200180831161037d57829003601f168201915b5050505050905083565b60606000606060008085815481106103bf576103be610a5f565b5b90600052602060002090600302016040518060600160405290816000820180546103e890610abd565b80601f016020809104026020016040519081016040528092919081815260200182805461041490610abd565b80156104615780601f1061043657610100808354040283529160200191610461565b820191906000526020600020905b81548152906001019060200180831161044457829003601f168201915b505050505081526020016001820154815260200160028201805461048490610abd565b80601f01602080910402602001604051908101604052809291908181526020018280546104b090610abd565b80156104fd5780601f106104d2576101008083540402835291602001916104fd565b820191906000526020600020905b8154815290600101906020018083116104e057829003601f168201915b5050505050815250509050806000015181602001518260400151935093509350509193909250565b6000604051806060016040528085815260200184815260200183815250908060018154018082558091505060019003906000526020600020906003020160009091909190915060008201518160000190816105809190610c9a565b506020820151816001015560408201518160020190816105a09190610c9a565b50505060016000805490506105b59190610dcb565b7fe3626c9ee0a0f78f740ad77292ea1a0a5c66ebdcf226a280ec27fb1a511e0d348484846040516105e893929190610a1a565b60405180910390a2505050565b6000604051905090565b600080fd5b600080fd5b600080fd5b600080fd5b6000601f19601f8301169050919050565b7f4e487b7100000000000000000000000000000000000000000000000000000000600052604160045260246000fd5b61065c82610613565b810181811067ffffffffffffffff8211171561067b5761067a610624565b5b80604052505050565b600061068e6105f5565b905061069a8282610653565b919050565b600067ffffffffffffffff8211156106ba576106b9610624565b5b6106c382610613565b9050602081019050919050565b82818337600083830152505050565b60006106f26106ed8461069f565b610684565b90508281526020810184848401111561070e5761070d61060e565b5b6107198482856106d0565b509392505050565b600082601f83011261073657610735610609565b5b81356107468482602086016106df565b91505092915050565b6000819050919050565b6107628161074f565b811461076d57600080fd5b50565b60008135905061077f81610759565b92915050565b60008060006060848603121561079e5761079d6105ff565b5b600084013567ffffffffffffffff8111156107bc576107bb610604565b5b6107c886828701610721565b93505060206107d986828701610770565b925050604084013567ffffffffffffffff8111156107fa576107f9610604565b5b61080686828701610721565b9150509250925092565b600081519050919050565b600082825260208201905092915050565b6000819050602082019050919050565b6108458161074f565b82525050565b6000610857838361083c565b60208301905092915050565b6000602082019050919050565b600061087b82610810565b610885818561081b565b93506108908361082c565b8060005b838110156108c15781516108a8888261084b565b97506108b383610863565b925050600181019050610894565b5085935050505092915050565b600060208201905081810360008301526108e88184610870565b905092915050565b600080600060608486031215610909576109086105ff565b5b600061091786828701610770565b935050602061092886828701610770565b925050604084013567ffffffffffffffff81111561094957610948610604565b5b61095586828701610721565b9150509250925092565b600060208284031215610975576109746105ff565b5b600061098384828501610770565b91505092915050565b600081519050919050565b600082825260208201905092915050565b60005b838110156109c65780820151818401526020810190506109ab565b60008484015250505050565b60006109dd8261098c565b6109e78185610997565b93506109f78185602086016109a8565b610a0081610613565b840191505092915050565b610a148161074f565b82525050565b60006060820190508181036000830152610a3481866109d2565b9050610a436020830185610a0b565b8181036040830152610a5581846109d2565b9050949350505050565b7f4e487b7100000000000000000000000000000000000000000000000000000000600052603260045260246000fd5b7f4e487b7100000000000000000000000000000000000000000000000000000000600052602260045260246000fd5b60006002820490506001821680610ad557607f821691505b602082108103610ae857610ae7610a8e565b5b50919050565b60008190508160005260206000209050919050565b60006020601f8301049050919050565b600082821b905092915050565b600060088302610b507fffffffffffffffffffffffffffffffffffffffffffffffffffffffffffffffff82610b13565b610b5a8683610b13565b95508019841693508086168417925050509392505050565b6000819050919050565b6000610b97610b92610b8d8461074f565b610b72565b61074f565b9050919050565b6000819050919050565b610bb183610b7c565b610bc5610bbd82610b9e565b848454610b20565b825550505050565b600090565b610bda610bcd565b610be5818484610ba8565b505050565b5b81811015610c0957610bfe600082610bd2565b600181019050610beb565b5050565b601f821115610c4e57610c1f81610aee565b610c2884610b03565b81016020851015610c37578190505b610c4b610c4385610b03565b830182610bea565b50505b505050565b600082821c905092915050565b6000610c7160001984600802610c53565b1980831691505092915050565b6000610c8a8383610c60565b9150826002028217905092915050565b610ca38261098c565b67ffffffffffffffff811115610cbc57610cbb610624565b5b610cc68254610abd565b610cd1828285610c0d565b600060209050601f831160018114610d045760008415610cf2578287015190505b610cfc8582610c7e565b865550610d64565b601f198416610d1286610aee565b60005b82811015610d3a57848901518255600182019150602085019450602081019050610d15565b86831015610d575784890151610d53601f891682610c60565b8355505b6001600288020188555050505b505050505050565b6000604082019050610d816000830185610a0b565b8181036020830152610d9381846109d2565b90509392505050565b7f4e487b7100000000000000000000000000000000000000000000000000000000600052601160045260246000fd5b6000610dd68261074f565b9150610de18361074f565b9250828203905081811115610df957610df8610d9c565b5b9291505056fea26469706673582212202bc9b40453ac0039222091342602cb99f627a200e26226ff381170378b7c4a2a64736f6c63430008160033537570706c696572204120697320666f6375736564206f6e207265647563696e6720636172626f6e20656d697373696f6e732e537570706c696572204420697320776f726b696e67206f6e207265647563696e672077617465722075736167652e537570706c696572204220757365732072656379636c6564206d6174657269616c732e537570706c696572204520737570706f727473206c6f63616c20636f6d6d756e69746965732e537570706c696572204320686173206120636f6d70726568656e73697665204353522070726f6772616d2e",
  "linkReferences": {},
  "deployedLinkReferences": {}
}